:020000040000FA
:100000000C9462000C948A000C948A000C948A0070
:100010000C948A000C948A000C948A000C948A0038
:100020000C948A000C948A000C948A000C948A0028
:100030000C948A000C948A000C948A000C948A0018
:100040000C94EE070C948A000C94BC070C94960751
:100050000C948A000C948A000C948A000C948A00F8
:100060000C948A000C948A000000000023002600F3
:10007000290000000008000201000003040700003E
:1000800000000000000000000000250028002B00F8
:1000900000000000240027002A00040404040404D3
:1000A0000404020202020202030303030303010227
:1000B00004081020408001020408102001020408F6
:1000C0001020380811241FBECFEFD8E0DEBFCDBF0F
:1000D00013E0A0E0B1E0E4EBF8E102C005900D927E
:1000E000A438B107D9F724E0A4E8B3E001C01D9219
:1000F000A93DB207E1F710E0C2E6D0E004C02197C5
:10010000FE010E942D0BC136D107C9F70E94C3081A
:100110000C94580C0C9400002F923F924F925F92D7
:100120006F927F928F929F92AF92BF92CF92DF9207
:10013000EF92FF920F931F93CF93DF938C011B01DC
:10014000DC012D913C912F3F320709F4F0C0822F42
:100150002E3010F082EF820F8770806480937C00D5
:1001600080917A00806480937A0080917A0086FD85
:10017000FCCFC0917800D0917900F801868D978DE1
:100180008130910509F084C086899789C817D907FD
:100190000CF4CE01D80157969C938E93569758969F
:1001A0008D919C918C179D070CF4CE01F801918FD5
:1001B000808FF8012481358182819381A9014C1BB4
:1001C0005D0B841795073CF0AE01421B530B84175F
:1001D00095070CF0ACC0D8011596DC93CE9314971C
:1001E0005496ED91FC9155975296CD90DC90539793
:1001F0001C96ED90FC901D97CE17DF070CF460C0A5
:10020000C701CC16DD0674F54701FF0CAA08BB0830
:100210000D2C000CEE08FF08F80120853185032E17
:10022000000C440B550B281939094A095B09BE011A
:10023000DD0F880B990B6C197D098E099F090E94AF
:100240001D0B26853785032E000C440B550B2C19EE
:100250003D094E095F090E94C20A820E931EA41E28
:10026000B51EC4016AE274E0F101DF91CF911F91E4
:100270000F91FF90EF90DF90CF90BF90AF909F9045
:100280008F907F906F905F904F903F902F90099448
:10029000029709F08ECF828D938DC817D9070CF481
:1002A000CE01F801938F828F848D958D8C179D07D9
:1002B0000CF4CE01D8015D969C938E935C9779CF18
:1002C0001A968D909C901B97092C000CAA08BB08CD
:1002D00050964D905C90052C000C660877089701AD
:1002E0000F2C000C440B550B281939094A095B09DE
:1002F000BE010D2E000C880B990B64197509860937
:1003000097090E941D0B9F01FF0F440B550B2419E9
:100310003509460957090E94C20A820E931EA41E7F
:10032000B51EC401CC16DD060CF09CCF6DCFDF915D
:10033000CF911F910F91FF90EF90DF90CF90BF90E2
:10034000AF909F908F907F906F905F904F903F9075
:100350002F900895FB01A081B181ED91FC9111973F
:100360000284F385E02DBC01CD010994DA018D9161
:100370009C91DC01ED91FC910280F381E02D0994C8
:10038000FB01A081B181ED91FC9111970084F18571
:10039000E02DBC01CD010994AF92BF92CF92DF92C4
:1003A000EF92FF920F931F93CF93DF936C017B012A
:1003B0008B01040F151FEB015E01AE18BF08C017BB
:1003C000D10759F06991D601ED91FC910190F0812E
:1003D000E02DC6010995892B79F7C501DF91CF91F1
:1003E0001F910F91FF90EF90DF90CF90BF90AF9053
:1003F0000895FC01538D448D252F30E0842F90E02B
:10040000821B930B541710F0CF960895019708950F
:10041000FC01918D828D981761F0A28DAE0FBF2FD8
:10042000B11D5D968C91928D9F5F9F73928F90E02E
:1004300008958FEF9FEF0895FC01918D828D98179D
:1004400031F0828DE80FF11D858D90E008958FEFDA
:100450009FEF0895FC01918D228D892F90E0805CA3
:100460009F4F821B91098F73992708958DE893E020
:100470000E942A0221E0892B09F420E0822F0895AE
:1004800080E090E0892B29F00E94360281110C94C3
:1004900000000895FC01A48DA80FB92FB11DA35A27
:1004A000BF4F2C91848D90E001968F739927848F94
:1004B000A689B7892C93A089B1898C9183708064B7
:1004C0008C93938D848D981306C00288F389E02D58
:1004D00080818F7D80830895EF92FF920F931F9309
:1004E000CF93DF93EC0181E0888F9B8D8C8D9813E7
:1004F0001AC0E889F989808185FF15C09FB7F894F3
:10050000EE89FF896083E889F9898081837080643E
:1005100080839FBF81E090E0DF91CF911F910F9189
:10052000FF90EF900895F62E0B8D10E00F5F1F4F98
:100530000F731127E02E8C8D8E110CC00FB607FCA7
:10054000FACFE889F989808185FFF5CFCE010E9435
:100550004A02F1CFEB8DEC0FFD2FF11DE35AFF4F57
:10056000F0829FB7F8940B8FEA89FB8980818062C3
:10057000CFCFCF93DF93EC01888D8823B9F0AA8980
:10058000BB89E889F9898C9185FD03C0808186FD4E
:100590000DC00FB607FCF7CF8C9185FFF2CF80819D
:1005A00085FFEDCFCE010E944A02E9CFDF91CF91C6
:1005B0000895CF93DF9390E0FC01E255FF4F249123
:1005C00086569F4FFC0184918823C9F090E0880FE4
:1005D000991FFC01E057FF4FA591B491FC01EA5728
:1005E000FF4FC591D49161110DC09FB7F8948C91C4
:1005F000209582238C938881282328839FBFDF91B5
:10060000CF910895623051F49FB7F8943C91822FB6
:10061000809583238C93E8812E2BEFCF8FB7F894AE
:10062000EC912E2B2C938FBFEACFCF93DF93EC016D
:10063000862F688379831B821A8221E030E03D8314
:100640002C8362E00E94D90281E090E02A813B8104
:100650002130310511F490E080E09B8B8A8B2FB71D
:10066000F8948091890390918A03A0918B03B091B3
:100670008C032FBF8E879F87A88BB98B8F8B988F0A
:10068000A98FBA8F8B8F9C8FAD8FBE8FDF91CF914B
:1006900008950F931F93DC01FB011A962D913C9155
:1006A0001B9712968D919C91139728173907C1F4C7
:1006B00056968C915697882399F016966D917D9158
:1006C0008D919C9119975B960D911D912D913C9167
:1006D0005E97601B710B820B930B1F910F91099416
:1006E0001F910F910895CF92DF92EF92FF920F9397
:1006F0001F93CF93DF93DC012D913C9111972F3FF6
:10070000320709F485C016964D935D936D937C93E3
:1007100019973327F901EE58FF4F8491F901E255FB
:10072000FF4F9491F901E656FF4FE491EE2309F44F
:100730009AC0882359F0833009F47EC008F071C054
:10074000813009F47FC0823009F480C0F0E0EE0F00
:10075000FF1FE859FF4FC591D491E8819E2331E0F6
:1007600020E009F430E0832F922F1B969C938E9308
:100770001A9716964D915D916D917C9119975296AD
:100780002D913C9153972817390751F053969C931C
:100790008E9352971E964D935D936D937C935197D4
:1007A00056961C9256971E960D911D912D913C9137
:1007B00051976A017B01C01AD10AE20AF30A1C961A
:1007C0000D911C911D97012E000C220B330B0C1563
:1007D0001D052E053F05E0F454962D913C9155974B
:1007E00028173907A9F055969C938E93549721E0CA
:1007F00056962C93569712962D913C911397281745
:100800003907A1F557964D935D936D937C935A9755
:10081000DF91CF911F910F91FF90EF90DF90CF90DC
:1008200008958730B1F08830D1F0843009F08ECF50
:10083000809180008F7D03C0809180008F778093AE
:10084000800084CF84B58F7784BD80CF84B58F7DC1
:10085000FBCF8091B0008F778093B00077CF8091ED
:10086000B0008F7DF9CF90E080E07FCF5B964D9315
:100870005D936D937C935E97CBCFFC01019000203C
:10088000E9F73197AF01481B590BBC018DE893E0A4
:100890000C94CC018F929F92AF92BF920F931F93B3
:1008A000CF93DF93CDB7DEB7A1970FB6F894DEBF35
:1008B0000FBECDBF19A2423008F44AE08E010F5D91
:1008C0001F4F842E912CB12CA12CA50194010E94C4
:1008D000EC0AE62FB901CA01EA30F4F4E05DD80170
:1008E000EE938D01232B242B252B79F790E080E0CC
:1008F000109719F0CD010E943D04A1960FB6F8940F
:10090000DEBF0FBECDBFDF91CF911F910F91BF9082
:10091000AF909F908F900895E95CE1CFCF92DF92E6
:10092000EF92FF92CF93DF936B017C016DE28DE834
:1009300093E00E946C02EC0166277727CB016C19CB
:100940007D098E099F094AE00E944A048C0F9D1F71
:10095000DF91CF91FF90EF90DF90CF900895CF93EC
:10096000DF930E943D04EC018AE691E00E943D0481
:100970008C0F9D1FDF91CF9108958DE691E00E942D
:10098000AF04EAE2F4E021E030E03383228335A7CC
:1009900024A78FEF93E095A384A317A216A291A793
:1009A00080A713A612A63093770420937604909321
:1009B0006F0480936E0410927104109270049093EF
:1009C00073048093720410927504109274048EE77D
:1009D00091E00E94AF0489E991E00C94AF04CF93B9
:1009E000DF93FC012281222331F0EC018AEB91E0BC
:1009F0000E94AF041A82DF91CF91089521E0FC019B
:100A000022838DED91E00C94AF0421E0FC01228360
:100A100089E092E00C94AF0421E0FC01228383E39F
:100A200092E00C94AF0421E0FC0122838DE592E07A
:100A30000C94AF04CF93DF934AE00E944A04EC0188
:100A40008AE691E00E943D048C0F9D1FDF91CF91BB
:100A50000895CF93DF93EB0121E0FC01228385E829
:100A600092E00E943D04BE01DD0F880B990B97FFB9
:100A700008C00E948E048BE592E0DF91CF910C9428
:100A8000AF044AE00E944A04F6CFCF93DF93EB0114
:100A900021E0FC0122838CEA92E00E943D04BE0129
:100AA000DD0F880B990B97FF08C00E948E048BE521
:100AB00092E0DF91CF910C94AF044AE00E944A0487
:100AC000F6CF4F925F926F927F928F929F92AF92EA
:100AD000BF92CF92DF92EF92FF920F931F93CF932B
:100AE000DF93CDB7DEB7C054D1090FB6F894DEBF9F
:100AF0000FBECDBF7C0180E4E6E0F1E0DE0111969F
:100B000001900D928A95E1F710E000E044244A94A8
:100B1000542C32010032110509F45EC06701C00E89
:100B2000D11EC6010E94AC0A92012827D301C90137
:100B30008F709927AA27BB27880F991F880F991FA5
:100B400041E050E04C0F5D1F840F951FFC01808039
:100B50009180A280B38034E0769467945794479450
:100B60003A95D1F784249524A624B724C6010E947F
:100B7000AC0A90E044E0959587954A95E1F7092EF7
:100B8000000CAA0BBB0B88259925AA25BB258F70C5
:100B90009927AA27BB27880F991F880F991F21E043
:100BA00030E02C0F3D1F820F931FFC0140805180CD
:100BB0006280738064E0B694A794979487946A9552
:100BC000D1F7482459246A247B244094509460949B
:100BD00070940F5F1F4F9ECFC301B201C05CDF4F07
:100BE0000FB6F894DEBF0FBECDBFDF91CF911F913E
:100BF0000F91FF90EF90DF90CF90BF90AF909F90BC
:100C00008F907F906F905F904F9008950F931F93F8
:100C1000CF93DF938C01EB010E94AC0A8883C8015B
:100C200001960E94AC0A8983CE01DF91CF911F917A
:100C30000F9108950F931F93CF93DF93FC010081D1
:100C400011810F3F100701F1EC01BC01665F7F4F7E
:100C5000C8010E940606BE01685F7F4FC801029668
:100C60000E940606BE01625F7F4FC80104960E9483
:100C70000606BE01645F7F4FC8010696DF91CF91E3
:100C80001F910F910C940606DF91CF911F910F9148
:100C90000895FF920F931F93CF93DF93EC018B0185
:100CA000FB01F0800E94AC0AF81621F06F2DCE01F6
:100CB0000E94B40AF801F1802196CE010E94AC0A8C
:100CC000F81621F06F2DCE010E94B40AC801DF9101
:100CD000CF911F910F91FF9008950F931F93CF9382
:100CE000DF93FC01008111810F3F100701F1EC013E
:100CF000BC01665F7F4FC8010E944906BE01685F64
:100D00007F4FC80102960E944906BE01625F7F4F75
:100D1000C80104960E944906BE01645F7F4FC80166
:100D20000696DF91CF911F910F910C944906DF91A8
:100D3000CF911F910F9108954F925F926F927F9282
:100D40009F92AF92BF92CF92DF92EF92FF920F935A
:100D50001F93CF93DF9300D000D0CDB7DEB72B0128
:100D60003C018A01DA0112968D919C91029709F05B
:100D700094C0B5EF4B16B1E05B066104710408F452
:100D80008CC0FA011382128283ED92E00E94AF04BC
:100D9000D8019D961C921E929C9796968D919C913F
:100DA000979794962D913C9195975F963C932E93AF
:100DB0005E975D969C938E935C979A968D919C918D
:100DC0009B9798962D913C91999793963C932E934F
:100DD000929791969C938E9390978BED92E00E94C0
:100DE000AF04F801E45BFF4F1182108236978081D7
:100DF0009181329720813181F80137AF26AF95AFCD
:100E000084AFE65BFF4F80819181329720813181F1
:100E1000369731832083329791838083D8011C9643
:100E20008D919C910196A9F1C80144960E946D068E
:100E3000C801C4960E946D06F801E484F58460E060
:100E400070E0CB01FFEFEF16FF0619F0C7010E941B
:100E5000610569837A838B839C83670120E2C20EDC
:100E6000D11CCE0101965C0194E2E90EF11CD50182
:100E70009D905D01C6010E94AC0A981621F0692D73
:100E8000C6010E94B40ABFEFCB1ADB0ACE14DF04FE
:100E900071F783EE92E00E94AF04F80182819381A2
:100EA0000197F9F4F5EF4F16F1E05F066104710464
:100EB000C0F082E090E0D80113969C938E93129735
:100EC0009D969C938E939C97F801E45BFF4F9183D2
:100ED00080838EEF92E00E94AF0488E193E00E944D
:100EE000AF0486E393E00E943D04C301B2010E9477
:100EF0001A05F80180819181DC01ED91FC9101904E
:100F0000F081E02D0F900F900F900F90DF91CF9117
:100F10001F910F91FF90EF90DF90CF90BF90AF9017
:100F20009F907F906F905F904F9009941F920F92C7
:100F30000FB60F9211242F933F934F935F936F93AC
:100F40007F938F939F93AF93BF93EF93FF938DE81E
:100F500093E00E944A02FF91EF91BF91AF919F9160
:100F60008F917F916F915F914F913F912F910F9052
:100F70000FBE0F901F9018951F920F920FB60F92F1
:100F800011242F938F939F93EF93FF93E0919D03F1
:100F9000F0919E038081E091A303F091A40382FD70
:100FA0001BC090818091A6038F5F8F732091A70350
:100FB000821741F0E091A603F0E0E357FC4F958FD4
:100FC0008093A603FF91EF919F918F912F910F90A6
:100FD0000FBE0F901F9018958081F4CF1F920F9233
:100FE0000FB60F9211242F933F938F939F93AF933C
:100FF000BF938091890390918A03A0918B03B09154
:101000008C033091880323E0230F2D3758F5019688
:10101000A11DB11D209388038093890390938A03B7
:10102000A0938B03B0938C038091840390918503EC
:10103000A0918603B09187030196A11DB11D8093F5
:10104000840390938503A0938603B0938703BF9195
:10105000AF919F918F913F912F910F900FBE0F9065
:101060001F90189526E8230F0296A11DB11DD2CF1F
:101070000F931F93CF93DF93EDE8F3E01382128277
:1010800088EE93E0A0E0B0E084839583A683B783E5
:101090008AE491E09183808385EC90E09587848752
:1010A00084EC90E09787868780EC90E0918B808B32
:1010B00081EC90E0938B828B82EC90E0958B848B1B
:1010C00086EC90E0978B868B118E128E138E148E89
:1010D000E6EBF4E02AE030E0358724878FEF9FEFDE
:1010E00091838083CAE2D4E061E070E8798F688FF1
:1010F0004FEF5FE75F8B4E8B1B8E1A8E9D8B8C8B19
:101100009F878E871DA61CA679AF68AF5FAB4EABDD
:101110001BAE1AAE9DAB8CAB9FA78EA71092770427
:10112000109276043093850420938404909379047C
:10113000809378043093A4042093A304909398049C
:10114000809397049D838C839F838E839987888760
:101150009B878A879D878C8783E090E00E94330B72
:101160008C018CE591E0F8019183808385E493E024
:101170000E94AF04F801128219830883DF91CF9196
:101180001F910F910895CF93DF9300D000D0CDB77A
:10119000DEB7789484B5826084BD84B5816084BDF7
:1011A00085B5826085BD85B5816085BD80916E0005
:1011B000816080936E001092810080918100826036
:1011C0008093810080918100816080938100809173
:1011D00080008160809380008091B1008460809362
:1011E000B1008091B00081608093B00080917A005E
:1011F000846080937A0080917A00826080937A0084
:1012000080917A00816080937A0080917A00806872
:1012100080937A001092C100E0919D03F0919E03AB
:1012200082E08083E0919903F0919A031082E0912B
:101230009B03F0919C038FEC80831092A503E091B7
:10124000A103F091A20386E08083E0919F03F091D7
:10125000A003808180618083E0919F03F091A003CF
:10126000808188608083E0919F03F091A00380815A
:1012700080688083E0919F03F091A00380818F7D3F
:1012800080838EE090E090932F0480932E042FE0D3
:10129000E22EF12CF0923104E09230042CE030E0A8
:1012A00030933304209332042BE030E03093350444
:1012B000209334041092370410923604909339042A
:1012C0008093380400E110E010933B0400933A044B
:1012D00010923F0410923E048EE394E00E941A069E
:1012E00060E08EE00E94D902F0925904E092580426
:1012F00010935B0400935A0488E090E090935F049D
:1013000080935E048EE594E00E941A0660E08FE010
:101310000E94D90200913604109137040F3F100744
:10132000C1F1C8010E9461054B015C01780190E2A6
:10133000E90EF11CDE0111966D010C5D1F4FC70116
:101340000E94AC0AF60181936F01FFEFEF1AFF0ACA
:10135000E016F106A1F78DE693E00E94AF04C98084
:10136000DA80EB80FC80C701B6010E941A05C50136
:10137000B4010E941A05C814D904EA04FB0409F058
:10138000C4C08EE394E00E941A068EE594E00E94A9
:101390001A066CE070E088E794E00E9415036BE0A9
:1013A00070E087E994E00E94150368E070E086EB46
:1013B00094E00E94150300E010E08FB7F894C0900D
:1013C0008903D0908A03E0908B03F0908C038FBF49
:1013D000B701A60186EB94E00E94730350E040E061
:1013E0006DEB74E086EB94E00E944903B701A6011F
:1013F00088E794E00E9473034AE254E06CE976E0E7
:1014000088E794E00E94490320918204309183048C
:1014100080917A0490917B042817390759F18091C3
:101420008E04882339F180907E0490907F04A090F0
:101430008004B090810480918F0490919004A091D9
:101440009104B0919204881A990AAA0ABB0A83E708
:1014500093E00E943D04C501B4010E941A058091E9
:101460002A0490912B04DC01ED91FC910480F5811C
:10147000E02D0995B701A60187E994E00E94730366
:101480004AE254E066EB71E087E994E00E94490388
:101490002091A1043091A2048091990490919A0422
:1014A0002817390779F08091AD04882359F080918D
:1014B0002A0490912B04DC01ED91FC910680F781C8
:1014C000E02D099560EC71E088E394E00E948C00C7
:1014D0006AEA71E088E594E00E948C0080912A0419
:1014E00090912B04DC01ED91FC910484F585E02DB5
:1014F00009950115110509F460CF0E943602882371
:1015000009F45BCF0E94000058CF1092490410925A
:1015100048044FEF53E050934704409346042FEEA6
:1015200031E030934D0420934C048FE092E090938F
:101530004B0480934A0410926904109268045093FB
:1015400067044093660430936D0420936C04909379
:101550006B0480936A041DCFF999FECF92BD81BDC3
:10156000F89A992780B50895262FF999FECF1FBACA
:1015700092BD81BD20BD0FB6F894FA9AF99A0FBEBC
:1015800001960895052E97FB1EF400940E94D90A37
:1015900057FD07D00E94EC0A07FC03D04EF40C94D0
:1015A000D90A50954095309521953F4F4F4F5F4F49
:1015B000089590958095709561957F4F8F4F9F4FBF
:1015C00008950E940E0BA59F900DB49F900DA49FAF
:1015D000800D911D11240895A1E21A2EAA1BBB1B98
:1015E000FD010DC0AA1FBB1FEE1FFF1FA217B307EF
:1015F000E407F50720F0A21BB30BE40BF50B661F05
:10160000771F881F991F1A9469F7609570958095C8
:1016100090959B01AC01BD01CF010895A29FB0013F
:10162000B39FC001A39F700D811D1124911DB29F16
:10163000700D811D1124911D0895DB018F939F93DF
:101640000E94E10ABF91AF91A29F800D911DA39FBF
:10165000900DB29F900D11240895EE0FFF1F05907D
:10166000F491E02D09940F931F93CF93DF93823071
:10167000910510F482E090E0E091D704F091D80455
:1016800030E020E0B0E0A0E0309799F4211531057A
:1016900009F44AC0281B390B24303105D8F58A815A
:1016A0009B816115710589F1FB0193838283FE01A2
:1016B00011C0408151810281138148175907E0F020
:1016C0004817590799F4109761F012960C931297E6
:1016D00013961C933296CF01DF91CF911F910F91FA
:1016E00008950093D7041093D804F4CF2115310541
:1016F00051F04217530738F0A901DB019A01BD01EF
:10170000DF01F801C1CFEF01F9CF9093D8048093A6
:10171000D704CDCFFE01E20FF31F819391932250A6
:10172000310939832883D7CF2091D5043091D6044D
:10173000232B41F420910201309103013093D60410
:101740002093D5042091000130910101211531052C
:1017500041F42DB73EB74091040150910501241B7F
:10176000350BE091D504F091D604E217F307A0F40D
:101770002E1B3F0B2817390778F0AC014E5F5F4FE7
:101780002417350748F04E0F5F1F5093D60440933F
:10179000D504819391939FCFF0E0E0E09CCFCF936D
:1017A000DF930097E9F0FC01329713821282A09137
:1017B000D704B091D804ED0130E020E01097A1F4F7
:1017C00020813181820F931F2091D5043091D6045E
:1017D0002817390709F061C0F093D604E093D504C7
:1017E000DF91CF910895EA01CE17DF07E8F54A812E
:1017F0005B819E0141155105B1F7E901FB83EA8345
:1018000049915991C40FD51FEC17FD0761F48081F0
:1018100091810296840F951FE901998388838281C3
:1018200093819B838A83F0E0E0E012968D919C91F6
:1018300013970097B9F52D913C911197CD01029620
:10184000820F931F2091D5043091D60428173907B1
:1018500039F6309751F51092D8041092D704B0930E
:10186000D604A093D504BCCFD383C28340815181D9
:10187000840F951FC817D90761F44E5F5F4F8881A9
:101880009981480F591F518340838A819B8193839B
:1018900082832115310509F0B0CFF093D804E0938D
:1018A000D7049ECFFD01DC01C0CF13821282D7CFB7
:1018B000F894FFCF0000D9048000000000006410FD
:1018C000B71DC8206E3BAC30D9269041DC76F45170
:1018D0006B6B5861B24D3C7105502083B8ED449359
:1018E0000FF0E8A3D6D68CB361CBB0C2649BD4D240
:1018F000D38678E20AA01CF2BDBD000000006C0295
:10190000CC01F901B9022A0208021C020000000001
:10191000130505050C05FE0429054505EF040D0A10
:1019200000534F202E2E2E20495420424547494E29
:101930005300424547494E2043414C49425241548D
:10194000494F4E20524F5554494E452E004D6F760B
:1019500065206A6F79737469636B20746F206D61A1
:1019600078696D756D20706F696E74732E005365A4
:101970007269616C5072696E7447616D6570616403
:10198000436F6E6669673A20636F6D6D69742829CD
:101990000053657269616C5072696E7447616D6560
:1019A000706164436F6E6669673A2062746E426C60
:1019B00061636B52656C65617365282900536572BC
:1019C00069616C5072696E7447616D6570616443E2
:1019D0006F6E6669673A2062746E426C61636B5029
:1019E0007265737328290053657269616C5072695E
:1019F0006E7447616D65706164436F6E6669673AC6
:101A00002062746E52656452656C65617365282945
:101A10000053657269616C5072696E7447616D65DF
:101A2000706164436F6E6669673A2062746E5265D6
:101A300064507265737328290053657269616C5034
:101A400072696E7447616D65706164436F6E66693B
:101A5000673A2061786973586368616E676528002A
:101A600053657269616C5072696E7447616D65701F
:101A70006164436F6E6669673A2061786973596380
:101A800068616E676528004178697320583A0041A3
:101A900078697320593A0043414C494252415449B4
:101AA0004F4E20524F5554494E4520454E444544D3
:101AB0002E0043414C4942524154452043454E5427
:101AC000455220524F5554494E452E0053657420BF
:101AD0006A6F79737469636B20746F2063656E74C9
:101AE000657220706F696E742E007072657373205A
:101AF000666F724D73203D200053657269616C50B2
:101B000072696E7447616D65706164436F6E66697A
:101B1000673A20636F6E7374727563746F722829ED
:101B200000435243733A0072656C656173652066C9
:081B30006F724D73203D20008F
:107E0000112484B714BE81FFF0D085E080938100F7
:107E100082E08093C00088E18093C10086E0809377
:107E2000C20080E18093C4008EE0C9D0259A86E02C
:107E300020E33CEF91E0309385002093840096BBD3
:107E4000B09BFECF1D9AA8958150A9F7CC24DD24C4
:107E500088248394B5E0AB2EA1E19A2EF3E0BF2EE7
:107E6000A2D0813461F49FD0082FAFD0023811F036
:107E7000013811F484E001C083E08DD089C08234E0
:107E800011F484E103C0853419F485E0A6D080C0E4
:107E9000853579F488D0E82EFF2485D0082F10E0AE
:107EA000102F00270E291F29000F111F8ED06801E7
:107EB0006FC0863521F484E090D080E0DECF843638
:107EC00009F040C070D06FD0082F6DD080E0C81688
:107ED00080E7D80618F4F601B7BEE895C0E0D1E017
:107EE00062D089930C17E1F7F0E0CF16F0E7DF06D8
:107EF00018F0F601B7BEE89568D007B600FCFDCFD4
:107F0000A601A0E0B1E02C9130E011968C91119780
:107F100090E0982F8827822B932B1296FA010C0160
:107F200087BEE89511244E5F5F4FF1E0A038BF0790
:107F300051F7F601A7BEE89507B600FCFDCF97BE46
:107F4000E89526C08437B1F42ED02DD0F82E2BD052
:107F50003CD0F601EF2C8F010F5F1F4F84911BD097
:107F6000EA94F801C1F70894C11CD11CFA94CF0C13
:107F7000D11C0EC0853739F428D08EE10CD085E9AC
:107F80000AD08FE07ACF813511F488E018D01DD067
:107F900080E101D065CF982F8091C00085FFFCCF94
:107FA0009093C60008958091C00087FFFCCF809118
:107FB000C00084FD01C0A8958091C6000895E0E648
:107FC000F0E098E1908380830895EDDF803219F02E
:107FD00088E0F5DFFFCF84E1DECF1F93182FE3DFCA
:107FE0001150E9F7F2DF1F91089580E0E8DFEE27F6
:047FF000FF270994CA
:027FFE00040479
:00000001FF
